{
  "_format": "hh-sol-artifact-1",
  "contractName": "MedCredRegistry",
  "sourceName": "contracts/MedCredRegistery.sol",
  "abi": [
    {
      "inputs": [
        {
          "internalType": "address",
          "name": "admin",
          "type": "address"
        }
      ],
      "stateMutability": "nonpayable",
      "type": "constructor"
    },
    {
      "anonymous": false,
      "inputs": [
        {
          "indexed": true,
          "internalType": "address",
          "name": "wallet",
          "type": "address"
        },
        {
          "indexed": false,
          "internalType": "string",
          "name": "license",
          "type": "string"
        },
        {
          "indexed": false,
          "internalType": "string",
          "name": "name",
          "type": "string"
        }
      ],
      "name": "DoctorAdded",
      "type": "event"
    },
    {
      "anonymous": false,
      "inputs": [
        {
          "indexed": true,
          "internalType": "address",
          "name": "wallet",
          "type": "address"
        },
        {
          "indexed": false,
          "internalType": "string",
          "name": "license",
          "type": "string"
        }
      ],
      "name": "DoctorRemoved",
      "type": "event"
    },
    {
      "anonymous": false,
      "inputs": [
        {
          "indexed": true,
          "internalType": "address",
          "name": "previousOwner",
          "type": "address"
        },
        {
          "indexed": true,
          "internalType": "address",
          "name": "newOwner",
          "type": "address"
        }
      ],
      "name": "OwnerChanged",
      "type": "event"
    },
    {
      "anonymous": false,
      "inputs": [
        {
          "indexed": true,
          "internalType": "address",
          "name": "wallet",
          "type": "address"
        },
        {
          "indexed": false,
          "internalType": "uint256",
          "name": "by",
          "type": "uint256"
        },
        {
          "indexed": false,
          "internalType": "uint256",
          "name": "newReputation",
          "type": "uint256"
        }
      ],
      "name": "ReputationDecreased",
      "type": "event"
    },
    {
      "anonymous": false,
      "inputs": [
        {
          "indexed": true,
          "internalType": "address",
          "name": "wallet",
          "type": "address"
        },
        {
          "indexed": false,
          "internalType": "uint256",
          "name": "by",
          "type": "uint256"
        },
        {
          "indexed": false,
          "internalType": "uint256",
          "name": "newReputation",
          "type": "uint256"
        }
      ],
      "name": "ReputationIncreased",
      "type": "event"
    },
    {
      "anonymous": false,
      "inputs": [
        {
          "indexed": true,
          "internalType": "address",
          "name": "wallet",
          "type": "address"
        },
        {
          "indexed": false,
          "internalType": "uint256",
          "name": "value",
          "type": "uint256"
        }
      ],
      "name": "ReputationSet",
      "type": "event"
    },
    {
      "anonymous": false,
      "inputs": [
        {
          "indexed": true,
          "internalType": "bytes32",
          "name": "role",
          "type": "bytes32"
        },
        {
          "indexed": true,
          "internalType": "bytes32",
          "name": "previousAdminRole",
          "type": "bytes32"
        },
        {
          "indexed": true,
          "internalType": "bytes32",
          "name": "newAdminRole",
          "type": "bytes32"
        }
      ],
      "name": "RoleAdminChanged",
      "type": "event"
    },
    {
      "anonymous": false,
      "inputs": [
        {
          "indexed": true,
          "internalType": "bytes32",
          "name": "role",
          "type": "bytes32"
        },
        {
          "indexed": true,
          "internalType": "address",
          "name": "account",
          "type": "address"
        },
        {
          "indexed": true,
          "internalType": "address",
          "name": "sender",
          "type": "address"
        }
      ],
      "name": "RoleGranted",
      "type": "event"
    },
    {
      "anonymous": false,
      "inputs": [
        {
          "indexed": true,
          "internalType": "bytes32",
          "name": "role",
          "type": "bytes32"
        },
        {
          "indexed": true,
          "internalType": "address",
          "name": "account",
          "type": "address"
        },
        {
          "indexed": true,
          "internalType": "address",
          "name": "sender",
          "type": "address"
        }
      ],
      "name": "RoleRevoked",
      "type": "event"
    },
    {
      "inputs": [],
      "name": "ADMIN_ROLE",
      "outputs": [
        {
          "internalType": "bytes32",
          "name": "",
          "type": "bytes32"
        }
      ],
      "stateMutability": "view",
      "type": "function"
    },
    {
      "inputs": [],
      "name": "DEFAULT_ADMIN_ROLE",
      "outputs": [
        {
          "internalType": "bytes32",
          "name": "",
          "type": "bytes32"
        }
      ],
      "stateMutability": "view",
      "type": "function"
    },
    {
      "inputs": [],
      "name": "REPUTATION_MANAGER_ROLE",
      "outputs": [
        {
          "internalType": "bytes32",
          "name": "",
          "type": "bytes32"
        }
      ],
      "stateMutability": "view",
      "type": "function"
    },
    {
      "inputs": [
        {
          "internalType": "address",
          "name": "wallet",
          "type": "address"
        },
        {
          "internalType": "string",
          "name": "license",
          "type": "string"
        },
        {
          "internalType": "string",
          "name": "name",
          "type": "string"
        }
      ],
      "name": "addDoctor",
      "outputs": [],
      "stateMutability": "nonpayable",
      "type": "function"
    },
    {
      "inputs": [
        {
          "internalType": "address",
          "name": "wallet",
          "type": "address"
        },
        {
          "internalType": "uint256",
          "name": "points",
          "type": "uint256"
        }
      ],
      "name": "decreaseReputation",
      "outputs": [],
      "stateMutability": "nonpayable",
      "type": "function"
    },
    {
      "inputs": [
        {
          "internalType": "address",
          "name": "wallet",
          "type": "address"
        }
      ],
      "name": "getDoctor",
      "outputs": [
        {
          "internalType": "string",
          "name": "license",
          "type": "string"
        },
        {
          "internalType": "string",
          "name": "name",
          "type": "string"
        },
        {
          "internalType": "bool",
          "name": "exists",
          "type": "bool"
        }
      ],
      "stateMutability": "view",
      "type": "function"
    },
    {
      "inputs": [
        {
          "internalType": "address",
          "name": "wallet",
          "type": "address"
        }
      ],
      "name": "getReputation",
      "outputs": [
        {
          "internalType": "uint256",
          "name": "",
          "type": "uint256"
        }
      ],
      "stateMutability": "view",
      "type": "function"
    },
    {
      "inputs": [
        {
          "internalType": "bytes32",
          "name": "role",
          "type": "bytes32"
        }
      ],
      "name": "getRoleAdmin",
      "outputs": [
        {
          "internalType": "bytes32",
          "name": "",
          "type": "bytes32"
        }
      ],
      "stateMutability": "view",
      "type": "function"
    },
    {
      "inputs": [
        {
          "internalType": "string",
          "name": "license",
          "type": "string"
        }
      ],
      "name": "getWalletByLicense",
      "outputs": [
        {
          "internalType": "address",
          "name": "",
          "type": "address"
        }
      ],
      "stateMutability": "view",
      "type": "function"
    },
    {
      "inputs": [
        {
          "internalType": "address",
          "name": "account",
          "type": "address"
        }
      ],
      "name": "grantReputationManager",
      "outputs": [],
      "stateMutability": "nonpayable",
      "type": "function"
    },
    {
      "inputs": [
        {
          "internalType": "bytes32",
          "name": "role",
          "type": "bytes32"
        },
        {
          "internalType": "address",
          "name": "account",
          "type": "address"
        }
      ],
      "name": "grantRole",
      "outputs": [],
      "stateMutability": "nonpayable",
      "type": "function"
    },
    {
      "inputs": [
        {
          "internalType": "bytes32",
          "name": "role",
          "type": "bytes32"
        },
        {
          "internalType": "address",
          "name": "account",
          "type": "address"
        }
      ],
      "name": "hasRole",
      "outputs": [
        {
          "internalType": "bool",
          "name": "",
          "type": "bool"
        }
      ],
      "stateMutability": "view",
      "type": "function"
    },
    {
      "inputs": [
        {
          "internalType": "address",
          "name": "wallet",
          "type": "address"
        },
        {
          "internalType": "uint256",
          "name": "points",
          "type": "uint256"
        }
      ],
      "name": "increaseReputation",
      "outputs": [],
      "stateMutability": "nonpayable",
      "type": "function"
    },
    {
      "inputs": [
        {
          "internalType": "address",
          "name": "wallet",
          "type": "address"
        }
      ],
      "name": "isDoctor",
      "outputs": [
        {
          "internalType": "bool",
          "name": "",
          "type": "bool"
        }
      ],
      "stateMutability": "view",
      "type": "function"
    },
    {
      "inputs": [],
      "name": "owner",
      "outputs": [
        {
          "internalType": "address",
          "name": "",
          "type": "address"
        }
      ],
      "stateMutability": "view",
      "type": "function"
    },
    {
      "inputs": [
        {
          "internalType": "address",
          "name": "wallet",
          "type": "address"
        }
      ],
      "name": "removeDoctor",
      "outputs": [],
      "stateMutability": "nonpayable",
      "type": "function"
    },
    {
      "inputs": [
        {
          "internalType": "bytes32",
          "name": "role",
          "type": "bytes32"
        },
        {
          "internalType": "address",
          "name": "account",
          "type": "address"
        }
      ],
      "name": "renounceRole",
      "outputs": [],
      "stateMutability": "nonpayable",
      "type": "function"
    },
    {
      "inputs": [
        {
          "internalType": "address",
          "name": "account",
          "type": "address"
        }
      ],
      "name": "revokeReputationManager",
      "outputs": [],
      "stateMutability": "nonpayable",
      "type": "function"
    },
    {
      "inputs": [
        {
          "internalType": "bytes32",
          "name": "role",
          "type": "bytes32"
        },
        {
          "internalType": "address",
          "name": "account",
          "type": "address"
        }
      ],
      "name": "revokeRole",
      "outputs": [],
      "stateMutability": "nonpayable",
      "type": "function"
    },
    {
      "inputs": [
        {
          "internalType": "address",
          "name": "wallet",
          "type": "address"
        },
        {
          "internalType": "uint256",
          "name": "value",
          "type": "uint256"
        }
      ],
      "name": "setReputation",
      "outputs": [],
      "stateMutability": "nonpayable",
      "type": "function"
    },
    {
      "inputs": [
        {
          "internalType": "bytes4",
          "name": "interfaceId",
          "type": "bytes4"
        }
      ],
      "name": "supportsInterface",
      "outputs": [
        {
          "internalType": "bool",
          "name": "",
          "type": "bool"
        }
      ],
      "stateMutability": "view",
      "type": "function"
    },
    {
      "inputs": [
        {
          "internalType": "address",
          "name": "newOwner",
          "type": "address"
        }
      ],
      "name": "transferOwnership",
      "outputs": [],
      "stateMutability": "nonpayable",
      "type": "function"
    }
  ],
  "bytecode": "0x60806040523480156200001157600080fd5b5060405162002f5438038062002f5483398181016040528101906200003791906200031b565b600073ffffffffffffffffffffffffffffffffffffffff168173ffffffffffffffffffffffffffffffffffffffff1603620000a9576040517f08c379a0000000000000000000000000000000000000000000000000000000008152600401620000a090620003ae565b60405180910390fd5b620000be6000801b826200013860201b60201c565b620000f07fa5df84d05f94c8e589750a34f9631c6df369aabc0811ccbbd233872ff60aec66826200013860201b60201c565b80600460006101000a81548173ffffffffffffffffffffffffffffffffffffffff021916908373ffffffffffffffffffffffffffffffffffffffff16021790555050620003d0565b6200014a82826200014e60201b60201c565b5050565b6200016082826200023f60201b60201c565b6200023b57600160008084815260200190815260200160002060000160008373ffffffffffffffffffffffffffffffffffffffff1673ffffffffffffffffffffffffffffffffffffffff16815260200190815260200160002060006101000a81548160ff021916908315150217905550620001e0620002a960201b60201c565b73ffffffffffffffffffffffffffffffffffffffff168173ffffffffffffffffffffffffffffffffffffffff16837f2f8788117e7eff1d82e926ec794901d17c78024a50270940304540a733656f0d60405160405180910390a45b5050565b600080600084815260200190815260200160002060000160008373ffffffffffffffffffffffffffffffffffffffff1673ffffffffffffffffffffffffffffffffffffffff16815260200190815260200160002060009054906101000a900460ff16905092915050565b600033905090565b600080fd5b600073ffffffffffffffffffffffffffffffffffffffff82169050919050565b6000620002e382620002b6565b9050919050565b620002f581620002d6565b81146200030157600080fd5b50565b6000815190506200031581620002ea565b92915050565b600060208284031215620003345762000333620002b1565b5b6000620003448482850162000304565b91505092915050565b600082825260208201905092915050565b7f61646d696e2d7a65726f00000000000000000000000000000000000000000000600082015250565b600062000396600a836200034d565b9150620003a3826200035e565b602082019050919050565b60006020820190508181036000830152620003c98162000387565b9050919050565b612b7480620003e06000396000f3fe608060405234801561001057600080fd5b50600436106101425760003560e01c806398fc90e9116100b8578063b2dd3c8e1161007c578063b2dd3c8e1461039b578063d547741f146103b7578063ded86d68146103d3578063eb0fd86a146103ef578063ed9fa61b1461040d578063f2fde38b1461042957610142565b806398fc90e9146102e5578063996440c6146103015780639c89a0e214610331578063a217fddf14610361578063b120c16a1461037f57610142565b80632f2ff15d1161010a5780632f2ff15d1461022557806334b789981461024157806336568abe1461025d57806375b238fc146102795780638da5cb5b1461029757806391d14854146102b557610142565b806301ffc9a714610147578063022814a014610177578063248a9ca3146101935780632c39bb39146101c35780632f04e064146101f3575b600080fd5b610161600480360381019061015c9190611cb4565b610445565b60405161016e9190611cfc565b60405180910390f35b610191600480360381019061018c9190611d75565b6104bf565b005b6101ad60048036038101906101a89190611dd8565b6104fa565b6040516101ba9190611e14565b60405180910390f35b6101dd60048036038101906101d89190611e94565b610519565b6040516101ea9190611ef0565b60405180910390f35b61020d60048036038101906102089190611d75565b610564565b60405161021c93929190611f9b565b60405180910390f35b61023f600480360381019061023a9190611fe0565b6106eb565b005b61025b60048036038101906102569190612020565b61070c565b005b61027760048036038101906102729190611fe0565b610ab6565b005b610281610b39565b60405161028e9190611e14565b60405180910390f35b61029f610b40565b6040516102ac9190611ef0565b60405180910390f35b6102cf60048036038101906102ca9190611fe0565b610b6a565b6040516102dc9190611cfc565b60405180910390f35b6102ff60048036038101906102fa9190611d75565b610bd4565b005b61031b60048036038101906103169190611d75565b610e8c565b6040516103289190611cfc565b60405180910390f35b61034b60048036038101906103469190611d75565b610ee5565b60405161035891906120ce565b60405180910390f35b610369610f2e565b6040516103769190611e14565b60405180910390f35b61039960048036038101906103949190612115565b610f35565b005b6103b560048036038101906103b09190611d75565b611068565b005b6103d160048036038101906103cc9190611fe0565b6110a3565b005b6103ed60048036038101906103e89190612115565b6110c4565b005b6103f76112b9565b6040516104049190611e14565b60405180910390f35b61042760048036038101906104229190612115565b6112dd565b005b610443600480360381019061043e9190611d75565b611562565b005b60007f7965db0b000000000000000000000000000000000000000000000000000000007bffffffffffffffffffffffffffffffffffffffffffffffffffffffff1916827bffffffffffffffffffffffffffffffffffffffffffffffffffffffff191614806104b857506104b7826116b2565b5b9050919050565b6000801b6104cc8161171c565b6104f67fa5df84d05f94c8e589750a34f9631c6df369aabc0811ccbbd233872ff60aec66836106eb565b5050565b6000806000838152602001908152602001600020600101549050919050565b60006002838360405161052d929190612194565b908152602001604051809103902060009054906101000a900473ffffffffffffffffffffffffffffffffffffffff16905092915050565b606080600080600160008673ffffffffffffffffffffffffffffffffffffffff1673ffffffffffffffffffffffffffffffffffffffff168152602001908152602001600020905080600001816001018260020160009054906101000a900460ff168280546105d1906121dc565b80601f01602080910402602001604051908101604052809291908181526020018280546105fd906121dc565b801561064a5780601f1061061f5761010080835404028352916020019161064a565b820191906000526020600020905b81548152906001019060200180831161062d57829003601f168201915b5050505050925081805461065d906121dc565b80601f0160208091040260200160405190810160405280929190818152602001828054610689906121dc565b80156106d65780601f106106ab576101008083540402835291602001916106d6565b820191906000526020600020905b8154815290600101906020018083116106b957829003601f168201915b50505050509150935093509350509193909250565b6106f4826104fa565b6106fd8161171c565b6107078383611730565b505050565b6000801b6107198161171c565b600073ffffffffffffffffffffffffffffffffffffffff168673ffffffffffffffffffffffffffffffffffffffff1603610788576040517f08c379a000000000000000000000000000000000000000000000000000000000815260040161077f90612259565b60405180910390fd5b600160008773ffffffffffffffffffffffffffffffffffffffff1673ffffffffffffffffffffffffffffffffffffffff16815260200190815260200160002060020160009054906101000a900460ff1615610818576040517f08c379a000000000000000000000000000000000000000000000000000000000815260040161080f906122c5565b60405180910390fd5b600073ffffffffffffffffffffffffffffffffffffffff1660028686604051610842929190612194565b908152602001604051809103902060009054906101000a900473ffffffffffffffffffffffffffffffffffffffff1673ffffffffffffffffffffffffffffffffffffffff16146108c7576040517f08c379a00000000000000000000000000000000000000000000000000000000081526004016108be90612331565b60405180910390fd5b604051806060016040528086868080601f016020809104026020016040519081016040528093929190818152602001838380828437600081840152601f19601f82011690508083019250505050505050815260200184848080601f016020809104026020016040519081016040528093929190818152602001838380828437600081840152601f19601f82011690508083019250505050505050815260200160011515815250600160008873ffffffffffffffffffffffffffffffffffffffff1673ffffffffffffffffffffffffffffffffffffffff16815260200190815260200160002060008201518160000190816109c1919061252c565b5060208201518160010190816109d7919061252c565b5060408201518160020160006101000a81548160ff0219169083151502179055509050508560028686604051610a0e929190612194565b908152602001604051809103902060006101000a81548173ffffffffffffffffffffffffffffffffffffffff021916908373ffffffffffffffffffffffffffffffffffffffff1602179055508573ffffffffffffffffffffffffffffffffffffffff167f9388661dcd7dc6cff9b4e22ab9459ac0a2682f86cb52fc7a669a6e7f062bce4c86868686604051610aa6949392919061262b565b60405180910390a2505050505050565b610abe611810565b73ffffffffffffffffffffffffffffffffffffffff168173ffffffffffffffffffffffffffffffffffffffff1614610b2b576040517f08c379a0000000000000000000000000000000000000000000000000000000008152600401610b22906126d8565b60405180910390fd5b610b358282611818565b5050565b6000801b81565b6000600460009054906101000a900473ffffffffffffffffffffffffffffffffffffffff16905090565b600080600084815260200190815260200160002060000160008373ffffffffffffffffffffffffffffffffffffffff1673ffffffffffffffffffffffffffffffffffffffff16815260200190815260200160002060009054906101000a900460ff16905092915050565b6000801b610be18161171c565b600160008373ffffffffffffffffffffffffffffffffffffffff1673ffffffffffffffffffffffffffffffffffffffff16815260200190815260200160002060020160009054906101000a900460ff16610c70576040517f08c379a0000000000000000000000000000000000000000000000000000000008152600401610c6790612744565b60405180910390fd5b6000600160008473ffffffffffffffffffffffffffffffffffffffff1673ffffffffffffffffffffffffffffffffffffffff1681526020019081526020016000206000018054610cbf906121dc565b80601f0160208091040260200160405190810160405280929190818152602001828054610ceb906121dc565b8015610d385780601f10610d0d57610100808354040283529160200191610d38565b820191906000526020600020905b815481529060010190602001808311610d1b57829003601f168201915b50505050509050600281604051610d4f9190612795565b908152602001604051809103902060006101000a81549073ffffffffffffffffffffffffffffffffffffffff0219169055600160008473ffffffffffffffffffffffffffffffffffffffff1673ffffffffffffffffffffffffffffffffffffffff16815260200190815260200160002060008082016000610dd09190611bf5565b600182016000610de09190611bf5565b6002820160006101000a81549060ff02191690555050600360008473ffffffffffffffffffffffffffffffffffffffff1673ffffffffffffffffffffffffffffffffffffffff168152602001908152602001600020600090558273ffffffffffffffffffffffffffffffffffffffff167f729d207905b8dcd1afd93231afa92ef7be18dd7d38c7c8290b23a7270373968882604051610e7f91906127ac565b60405180910390a2505050565b6000600160008373ffffffffffffffffffffffffffffffffffffffff1673ffffffffffffffffffffffffffffffffffffffff16815260200190815260200160002060020160009054906101000a900460ff169050919050565b6000600360008373ffffffffffffffffffffffffffffffffffffffff1673ffffffffffffffffffffffffffffffffffffffff168152602001908152602001600020549050919050565b6000801b81565b6000801b610f428161171c565b600160008473ffffffffffffffffffffffffffffffffffffffff1673ffffffffffffffffffffffffffffffffffffffff16815260200190815260200160002060020160009054906101000a900460ff16610fd1576040517f08c379a0000000000000000000000000000000000000000000000000000000008152600401610fc890612744565b60405180910390fd5b81600360008573ffffffffffffffffffffffffffffffffffffffff1673ffffffffffffffffffffffffffffffffffffffff168152602001908152602001600020819055508273ffffffffffffffffffffffffffffffffffffffff167f64e563fb1e4ddd0566f8be787f8b3a517b7ed8187d91f8d6a2f8bbe4314822a48360405161105b91906120ce565b60405180910390a2505050565b6000801b6110758161171c565b61109f7fa5df84d05f94c8e589750a34f9631c6df369aabc0811ccbbd233872ff60aec66836110a3565b5050565b6110ac826104fa565b6110b58161171c565b6110bf8383611818565b505050565b6110ee7fa5df84d05f94c8e589750a34f9631c6df369aabc0811ccbbd233872ff60aec6633610b6a565b8061110257506111016000801b33610b6a565b5b611141576040517f08c379a00000000000000000000000000000000000000000000000000000000081526004016111389061281a565b60405180910390fd5b600160008373ffffffffffffffffffffffffffffffffffffffff1673ffffffffffffffffffffffffffffffffffffffff16815260200190815260200160002060020160009054906101000a900460ff166111d0576040517f08c379a00000000000000000000000000000000000000000000000000000000081526004016111c790612744565b60405180910390fd5b80600360008473ffffffffffffffffffffffffffffffffffffffff1673ffffffffffffffffffffffffffffffffffffffff168152602001908152602001600020600082825461121f9190612869565b925050819055508173ffffffffffffffffffffffffffffffffffffffff167f1184f90af155d0111e012d312573e4629b957416262135b177d8f05a626b723382600360008673ffffffffffffffffffffffffffffffffffffffff1673ffffffffffffffffffffffffffffffffffffffff168152602001908152602001600020546040516112ad92919061289d565b60405180910390a25050565b7fa5df84d05f94c8e589750a34f9631c6df369aabc0811ccbbd233872ff60aec6681565b6113077fa5df84d05f94c8e589750a34f9631c6df369aabc0811ccbbd233872ff60aec6633610b6a565b8061131b575061131a6000801b33610b6a565b5b61135a576040517f08c379a00000000000000000000000000000000000000000000000000000000081526004016113519061281a565b60405180910390fd5b600160008373ffffffffffffffffffffffffffffffffffffffff1673ffffffffffffffffffffffffffffffffffffffff16815260200190815260200160002060020160009054906101000a900460ff166113e9576040517f08c379a00000000000000000000000000000000000000000000000000000000081526004016113e090612744565b60405180910390fd5b6000600360008473ffffffffffffffffffffffffffffffffffffffff1673ffffffffffffffffffffffffffffffffffffffff16815260200190815260200160002054905080821061147e576000600360008573ffffffffffffffffffffffffffffffffffffffff1673ffffffffffffffffffffffffffffffffffffffff168152602001908152602001600020819055506114ce565b818161148a91906128c6565b600360008573ffffffffffffffffffffffffffffffffffffffff1673ffffffffffffffffffffffffffffffffffffffff168152602001908152602001600020819055505b8273ffffffffffffffffffffffffffffffffffffffff167f8c906f659d5537f9e617a171b7fdd59760a014eeb4811da5c5fccf62a413983483600360008773ffffffffffffffffffffffffffffffffffffffff1673ffffffffffffffffffffffffffffffffffffffff1681526020019081526020016000205460405161155592919061289d565b60405180910390a2505050565b6000801b61156f8161171c565b600073ffffffffffffffffffffffffffffffffffffffff168273ffffffffffffffffffffffffffffffffffffffff16036115de576040517f08c379a00000000000000000000000000000000000000000000000000000000081526004016115d590612946565b60405180910390fd5b6000600460009054906101000a900473ffffffffffffffffffffffffffffffffffffffff16905082600460006101000a81548173ffffffffffffffffffffffffffffffffffffffff021916908373ffffffffffffffffffffffffffffffffffffffff1602179055506116536000801b846118f9565b8273ffffffffffffffffffffffffffffffffffffffff168173ffffffffffffffffffffffffffffffffffffffff167fb532073b38c83145e3e5135377a08bf9aab55bc0fd7c1179cd4fb995d2a5159c60405160405180910390a3505050565b60007f01ffc9a7000000000000000000000000000000000000000000000000000000007bffffffffffffffffffffffffffffffffffffffffffffffffffffffff1916827bffffffffffffffffffffffffffffffffffffffffffffffffffffffff1916149050919050565b61172d81611728611810565b611907565b50565b61173a8282610b6a565b61180c57600160008084815260200190815260200160002060000160008373ffffffffffffffffffffffffffffffffffffffff1673ffffffffffffffffffffffffffffffffffffffff16815260200190815260200160002060006101000a81548160ff0219169083151502179055506117b1611810565b73ffffffffffffffffffffffffffffffffffffffff168173ffffffffffffffffffffffffffffffffffffffff16837f2f8788117e7eff1d82e926ec794901d17c78024a50270940304540a733656f0d60405160405180910390a45b5050565b600033905090565b6118228282610b6a565b156118f557600080600084815260200190815260200160002060000160008373ffffffffffffffffffffffffffffffffffffffff1673ffffffffffffffffffffffffffffffffffffffff16815260200190815260200160002060006101000a81548160ff02191690831515021790555061189a611810565b73ffffffffffffffffffffffffffffffffffffffff168173ffffffffffffffffffffffffffffffffffffffff16837ff6391f5c32d9c69d2a47ea670b442974b53935d1edc7fd64eb21e047a839171b60405160405180910390a45b5050565b6119038282611730565b5050565b6119118282610b6a565b6119885761191e8161198c565b61192c8360001c60206119b9565b60405160200161193d9291906129fe565b6040516020818303038152906040526040517f08c379a000000000000000000000000000000000000000000000000000000000815260040161197f91906127ac565b60405180910390fd5b5050565b60606119b28273ffffffffffffffffffffffffffffffffffffffff16601460ff166119b9565b9050919050565b6060600060028360026119cc9190612a38565b6119d69190612869565b67ffffffffffffffff8111156119ef576119ee612351565b5b6040519080825280601f01601f191660200182016040528015611a215781602001600182028036833780820191505090505b5090507f300000000000000000000000000000000000000000000000000000000000000081600081518110611a5957611a58612a7a565b5b60200101907effffffffffffffffffffffffffffffffffffffffffffffffffffffffffffff1916908160001a9053507f780000000000000000000000000000000000000000000000000000000000000081600181518110611abd57611abc612a7a565b5b60200101907effffffffffffffffffffffffffffffffffffffffffffffffffffffffffffff1916908160001a90535060006001846002611afd9190612a38565b611b079190612869565b90505b6001811115611ba7577f3031323334353637383961626364656600000000000000000000000000000000600f861660108110611b4957611b48612a7a565b5b1a60f81b828281518110611b6057611b5f612a7a565b5b60200101907effffffffffffffffffffffffffffffffffffffffffffffffffffffffffffff1916908160001a905350600485901c945080611ba090612aa9565b9050611b0a565b5060008414611beb576040517f08c379a0000000000000000000000000000000000000000000000000000000008152600401611be290612b1e565b60405180910390fd5b8091505092915050565b508054611c01906121dc565b6000825580601f10611c135750611c32565b601f016020900490600052602060002090810190611c319190611c35565b5b50565b5b80821115611c4e576000816000905550600101611c36565b5090565b600080fd5b600080fd5b60007fffffffff0000000000000000000000000000000000000000000000000000000082169050919050565b611c9181611c5c565b8114611c9c57600080fd5b50565b600081359050611cae81611c88565b92915050565b600060208284031215611cca57611cc9611c52565b5b6000611cd884828501611c9f565b91505092915050565b60008115159050919050565b611cf681611ce1565b82525050565b6000602082019050611d116000830184611ced565b92915050565b600073ffffffffffffffffffffffffffffffffffffffff82169050919050565b6000611d4282611d17565b9050919050565b611d5281611d37565b8114611d5d57600080fd5b50565b600081359050611d6f81611d49565b92915050565b600060208284031215611d8b57611d8a611c52565b5b6000611d9984828501611d60565b91505092915050565b6000819050919050565b611db581611da2565b8114611dc057600080fd5b50565b600081359050611dd281611dac565b92915050565b600060208284031215611dee57611ded611c52565b5b6000611dfc84828501611dc3565b91505092915050565b611e0e81611da2565b82525050565b6000602082019050611e296000830184611e05565b92915050565b600080fd5b600080fd5b600080fd5b60008083601f840112611e5457611e53611e2f565b5b8235905067ffffffffffffffff811115611e7157611e70611e34565b5b602083019150836001820283011115611e8d57611e8c611e39565b5b9250929050565b60008060208385031215611eab57611eaa611c52565b5b600083013567ffffffffffffffff811115611ec957611ec8611c57565b5b611ed585828601611e3e565b92509250509250929050565b611eea81611d37565b82525050565b6000602082019050611f056000830184611ee1565b92915050565b600081519050919050565b600082825260208201905092915050565b60005b83811015611f45578082015181840152602081019050611f2a565b60008484015250505050565b6000601f19601f8301169050919050565b6000611f6d82611f0b565b611f778185611f16565b9350611f87818560208601611f27565b611f9081611f51565b840191505092915050565b60006060820190508181036000830152611fb58186611f62565b90508181036020830152611fc98185611f62565b9050611fd86040830184611ced565b949350505050565b60008060408385031215611ff757611ff6611c52565b5b600061200585828601611dc3565b925050602061201685828601611d60565b9150509250929050565b60008060008060006060868803121561203c5761203b611c52565b5b600061204a88828901611d60565b955050602086013567ffffffffffffffff81111561206b5761206a611c57565b5b61207788828901611e3e565b9450945050604086013567ffffffffffffffff81111561209a57612099611c57565b5b6120a688828901611e3e565b92509250509295509295909350565b6000819050919050565b6120c8816120b5565b82525050565b60006020820190506120e360008301846120bf565b92915050565b6120f2816120b5565b81146120fd57600080fd5b50565b60008135905061210f816120e9565b92915050565b6000806040838503121561212c5761212b611c52565b5b600061213a85828601611d60565b925050602061214b85828601612100565b9150509250929050565b600081905092915050565b82818337600083830152505050565b600061217b8385612155565b9350612188838584612160565b82840190509392505050565b60006121a182848661216f565b91508190509392505050565b7f4e487b7100000000000000000000000000000000000000000000000000000000600052602260045260246000fd5b600060028204905060018216806121f457607f821691505b602082108103612207576122066121ad565b5b50919050565b7f77616c6c65742d7a65726f000000000000000000000000000000000000000000600082015250565b6000612243600b83611f16565b915061224e8261220d565b602082019050919050565b6000602082019050818103600083015261227281612236565b9050919050565b7f616c72656164792d726567697374657265640000000000000000000000000000600082015250565b60006122af601283611f16565b91506122ba82612279565b602082019050919050565b600060208201905081810360008301526122de816122a2565b9050919050565b7f6c6963656e73652d74616b656e00000000000000000000000000000000000000600082015250565b600061231b600d83611f16565b9150612326826122e5565b602082019050919050565b6000602082019050818103600083015261234a8161230e565b9050919050565b7f4e487b7100000000000000000000000000000000000000000000000000000000600052604160045260246000fd5b60008190508160005260206000209050919050565b60006020601f8301049050919050565b600082821b905092915050565b6000600883026123e27fffffffffffffffffffffffffffffffffffffffffffffffffffffffffffffffff826123a5565b6123ec86836123a5565b95508019841693508086168417925050509392505050565b6000819050919050565b600061242961242461241f846120b5565b612404565b6120b5565b9050919050565b6000819050919050565b6124438361240e565b61245761244f82612430565b8484546123b2565b825550505050565b600090565b61246c61245f565b61247781848461243a565b505050565b5b8181101561249b57612490600082612464565b60018101905061247d565b5050565b601f8211156124e0576124b181612380565b6124ba84612395565b810160208510156124c9578190505b6124dd6124d585612395565b83018261247c565b50505b505050565b600082821c905092915050565b6000612503600019846008026124e5565b1980831691505092915050565b600061251c83836124f2565b9150826002028217905092915050565b61253582611f0b565b67ffffffffffffffff81111561254e5761254d612351565b5b61255882546121dc565b61256382828561249f565b600060209050601f8311600181146125965760008415612584578287015190505b61258e8582612510565b8655506125f6565b601f1984166125a486612380565b60005b828110156125cc578489015182556001820191506020850194506020810190506125a7565b868310156125e957848901516125e5601f8916826124f2565b8355505b6001600288020188555050505b505050505050565b600061260a8385611f16565b9350612617838584612160565b61262083611f51565b840190509392505050565b600060408201905081810360008301526126468186886125fe565b9050818103602083015261265b8184866125fe565b905095945050505050565b7f416363657373436f6e74726f6c3a2063616e206f6e6c792072656e6f756e636560008201527f20726f6c657320666f722073656c660000000000000000000000000000000000602082015250565b60006126c2602f83611f16565b91506126cd82612666565b604082019050919050565b600060208201905081810360008301526126f1816126b5565b9050919050565b7f6e6f742d72656769737465726564000000000000000000000000000000000000600082015250565b600061272e600e83611f16565b9150612739826126f8565b602082019050919050565b6000602082019050818103600083015261275d81612721565b9050919050565b600061276f82611f0b565b6127798185612155565b9350612789818560208601611f27565b80840191505092915050565b60006127a18284612764565b915081905092915050565b600060208201905081810360008301526127c68184611f62565b905092915050565b7f6e6f742d617574686f72697a6564000000000000000000000000000000000000600082015250565b6000612804600e83611f16565b915061280f826127ce565b602082019050919050565b60006020820190508181036000830152612833816127f7565b9050919050565b7f4e487b7100000000000000000000000000000000000000000000000000000000600052601160045260246000fd5b6000612874826120b5565b915061287f836120b5565b92508282019050808211156128975761289661283a565b5b92915050565b60006040820190506128b260008301856120bf565b6128bf60208301846120bf565b9392505050565b60006128d1826120b5565b91506128dc836120b5565b92508282039050818111156128f4576128f361283a565b5b92915050565b7f6e65774f776e65722d7a65726f00000000000000000000000000000000000000600082015250565b6000612930600d83611f16565b915061293b826128fa565b602082019050919050565b6000602082019050818103600083015261295f81612923565b9050919050565b7f416363657373436f6e74726f6c3a206163636f756e7420000000000000000000600082015250565b600061299c601783612155565b91506129a782612966565b601782019050919050565b7f206973206d697373696e6720726f6c6520000000000000000000000000000000600082015250565b60006129e8601183612155565b91506129f3826129b2565b601182019050919050565b6000612a098261298f565b9150612a158285612764565b9150612a20826129db565b9150612a2c8284612764565b91508190509392505050565b6000612a43826120b5565b9150612a4e836120b5565b9250828202612a5c816120b5565b91508282048414831517612a7357612a7261283a565b5b5092915050565b7f4e487b7100000000000000000000000000000000000000000000000000000000600052603260045260246000fd5b6000612ab4826120b5565b915060008203612ac757612ac661283a565b5b600182039050919050565b7f537472696e67733a20686578206c656e67746820696e73756666696369656e74600082015250565b6000612b08602083611f16565b9150612b1382612ad2565b602082019050919050565b60006020820190508181036000830152612b3781612afb565b905091905056fea26469706673582212208ab490b8bc7a6ebb5793f4a7874a8f3118bd97dbdee52885cf410d8f407f1fb964736f6c63430008130033",
  "linkReferences": {},
  "deployedLinkReferences": {}
}