{
  "_format": "hh-sol-artifact-1",
  "contractName": "Staking",
  "sourceName": "contracts/Staking.sol",
  "abi": [
    {
      "inputs": [
        {
          "internalType": "contract IERC20",
          "name": "_token",
          "type": "address"
        },
        {
          "internalType": "address",
          "name": "admin",
          "type": "address"
        },
        {
          "internalType": "address",
          "name": "_treasury",
          "type": "address"
        },
        {
          "internalType": "uint256",
          "name": "_cooldownSeconds",
          "type": "uint256"
        }
      ],
      "stateMutability": "nonpayable",
      "type": "constructor"
    },
    {
      "anonymous": false,
      "inputs": [
        {
          "indexed": false,
          "internalType": "uint256",
          "name": "durationInSeconds",
          "type": "uint256"
        }
      ],
      "name": "CooldownSet",
      "type": "event"
    },
    {
      "anonymous": false,
      "inputs": [
        {
          "indexed": true,
          "internalType": "bytes32",
          "name": "role",
          "type": "bytes32"
        },
        {
          "indexed": true,
          "internalType": "bytes32",
          "name": "previousAdminRole",
          "type": "bytes32"
        },
        {
          "indexed": true,
          "internalType": "bytes32",
          "name": "newAdminRole",
          "type": "bytes32"
        }
      ],
      "name": "RoleAdminChanged",
      "type": "event"
    },
    {
      "anonymous": false,
      "inputs": [
        {
          "indexed": true,
          "internalType": "bytes32",
          "name": "role",
          "type": "bytes32"
        },
        {
          "indexed": true,
          "internalType": "address",
          "name": "account",
          "type": "address"
        },
        {
          "indexed": true,
          "internalType": "address",
          "name": "sender",
          "type": "address"
        }
      ],
      "name": "RoleGranted",
      "type": "event"
    },
    {
      "anonymous": false,
      "inputs": [
        {
          "indexed": true,
          "internalType": "bytes32",
          "name": "role",
          "type": "bytes32"
        },
        {
          "indexed": true,
          "internalType": "address",
          "name": "account",
          "type": "address"
        },
        {
          "indexed": true,
          "internalType": "address",
          "name": "sender",
          "type": "address"
        }
      ],
      "name": "RoleRevoked",
      "type": "event"
    },
    {
      "anonymous": false,
      "inputs": [
        {
          "indexed": true,
          "internalType": "address",
          "name": "user",
          "type": "address"
        },
        {
          "indexed": false,
          "internalType": "uint256",
          "name": "amount",
          "type": "uint256"
        },
        {
          "indexed": false,
          "internalType": "address",
          "name": "to",
          "type": "address"
        }
      ],
      "name": "Slashed",
      "type": "event"
    },
    {
      "anonymous": false,
      "inputs": [
        {
          "indexed": true,
          "internalType": "address",
          "name": "user",
          "type": "address"
        },
        {
          "indexed": false,
          "internalType": "uint256",
          "name": "amount",
          "type": "uint256"
        }
      ],
      "name": "Staked",
      "type": "event"
    },
    {
      "anonymous": false,
      "inputs": [
        {
          "indexed": true,
          "internalType": "address",
          "name": "treasury",
          "type": "address"
        }
      ],
      "name": "TreasurySet",
      "type": "event"
    },
    {
      "anonymous": false,
      "inputs": [
        {
          "indexed": true,
          "internalType": "address",
          "name": "user",
          "type": "address"
        },
        {
          "indexed": false,
          "internalType": "uint256",
          "name": "amount",
          "type": "uint256"
        },
        {
          "indexed": false,
          "internalType": "uint256",
          "name": "unlockAt",
          "type": "uint256"
        }
      ],
      "name": "UnstakeRequested",
      "type": "event"
    },
    {
      "anonymous": false,
      "inputs": [
        {
          "indexed": true,
          "internalType": "address",
          "name": "user",
          "type": "address"
        },
        {
          "indexed": false,
          "internalType": "uint256",
          "name": "amount",
          "type": "uint256"
        }
      ],
      "name": "Withdrawn",
      "type": "event"
    },
    {
      "inputs": [],
      "name": "DEFAULT_ADMIN_ROLE",
      "outputs": [
        {
          "internalType": "bytes32",
          "name": "",
          "type": "bytes32"
        }
      ],
      "stateMutability": "view",
      "type": "function"
    },
    {
      "inputs": [],
      "name": "SLASHER_ROLE",
      "outputs": [
        {
          "internalType": "bytes32",
          "name": "",
          "type": "bytes32"
        }
      ],
      "stateMutability": "view",
      "type": "function"
    },
    {
      "inputs": [],
      "name": "cooldownSeconds",
      "outputs": [
        {
          "internalType": "uint256",
          "name": "",
          "type": "uint256"
        }
      ],
      "stateMutability": "view",
      "type": "function"
    },
    {
      "inputs": [
        {
          "internalType": "bytes32",
          "name": "role",
          "type": "bytes32"
        }
      ],
      "name": "getRoleAdmin",
      "outputs": [
        {
          "internalType": "bytes32",
          "name": "",
          "type": "bytes32"
        }
      ],
      "stateMutability": "view",
      "type": "function"
    },
    {
      "inputs": [
        {
          "internalType": "address",
          "name": "user",
          "type": "address"
        }
      ],
      "name": "getStaked",
      "outputs": [
        {
          "internalType": "uint256",
          "name": "",
          "type": "uint256"
        }
      ],
      "stateMutability": "view",
      "type": "function"
    },
    {
      "inputs": [
        {
          "internalType": "bytes32",
          "name": "role",
          "type": "bytes32"
        },
        {
          "internalType": "address",
          "name": "account",
          "type": "address"
        }
      ],
      "name": "grantRole",
      "outputs": [],
      "stateMutability": "nonpayable",
      "type": "function"
    },
    {
      "inputs": [
        {
          "internalType": "bytes32",
          "name": "role",
          "type": "bytes32"
        },
        {
          "internalType": "address",
          "name": "account",
          "type": "address"
        }
      ],
      "name": "hasRole",
      "outputs": [
        {
          "internalType": "bool",
          "name": "",
          "type": "bool"
        }
      ],
      "stateMutability": "view",
      "type": "function"
    },
    {
      "inputs": [
        {
          "internalType": "address",
          "name": "",
          "type": "address"
        }
      ],
      "name": "pendingWithdraw",
      "outputs": [
        {
          "internalType": "uint256",
          "name": "",
          "type": "uint256"
        }
      ],
      "stateMutability": "view",
      "type": "function"
    },
    {
      "inputs": [
        {
          "internalType": "bytes32",
          "name": "role",
          "type": "bytes32"
        },
        {
          "internalType": "address",
          "name": "account",
          "type": "address"
        }
      ],
      "name": "renounceRole",
      "outputs": [],
      "stateMutability": "nonpayable",
      "type": "function"
    },
    {
      "inputs": [
        {
          "internalType": "uint256",
          "name": "amount",
          "type": "uint256"
        }
      ],
      "name": "requestUnstake",
      "outputs": [],
      "stateMutability": "nonpayable",
      "type": "function"
    },
    {
      "inputs": [
        {
          "internalType": "bytes32",
          "name": "role",
          "type": "bytes32"
        },
        {
          "internalType": "address",
          "name": "account",
          "type": "address"
        }
      ],
      "name": "revokeRole",
      "outputs": [],
      "stateMutability": "nonpayable",
      "type": "function"
    },
    {
      "inputs": [
        {
          "internalType": "uint256",
          "name": "_durationInSeconds",
          "type": "uint256"
        }
      ],
      "name": "setCooldown",
      "outputs": [],
      "stateMutability": "nonpayable",
      "type": "function"
    },
    {
      "inputs": [
        {
          "internalType": "address",
          "name": "_t",
          "type": "address"
        }
      ],
      "name": "setTreasury",
      "outputs": [],
      "stateMutability": "nonpayable",
      "type": "function"
    },
    {
      "inputs": [
        {
          "internalType": "address",
          "name": "user",
          "type": "address"
        },
        {
          "internalType": "uint256",
          "name": "amount",
          "type": "uint256"
        }
      ],
      "name": "slash",
      "outputs": [],
      "stateMutability": "nonpayable",
      "type": "function"
    },
    {
      "inputs": [
        {
          "internalType": "uint256",
          "name": "amount",
          "type": "uint256"
        }
      ],
      "name": "stake",
      "outputs": [],
      "stateMutability": "nonpayable",
      "type": "function"
    },
    {
      "inputs": [
        {
          "internalType": "address",
          "name": "",
          "type": "address"
        }
      ],
      "name": "staked",
      "outputs": [
        {
          "internalType": "uint256",
          "name": "",
          "type": "uint256"
        }
      ],
      "stateMutability": "view",
      "type": "function"
    },
    {
      "inputs": [
        {
          "internalType": "bytes4",
          "name": "interfaceId",
          "type": "bytes4"
        }
      ],
      "name": "supportsInterface",
      "outputs": [
        {
          "internalType": "bool",
          "name": "",
          "type": "bool"
        }
      ],
      "stateMutability": "view",
      "type": "function"
    },
    {
      "inputs": [],
      "name": "token",
      "outputs": [
        {
          "internalType": "contract IERC20",
          "name": "",
          "type": "address"
        }
      ],
      "stateMutability": "view",
      "type": "function"
    },
    {
      "inputs": [],
      "name": "totalStaked",
      "outputs": [
        {
          "internalType": "uint256",
          "name": "",
          "type": "uint256"
        }
      ],
      "stateMutability": "view",
      "type": "function"
    },
    {
      "inputs": [],
      "name": "treasury",
      "outputs": [
        {
          "internalType": "address",
          "name": "",
          "type": "address"
        }
      ],
      "stateMutability": "view",
      "type": "function"
    },
    {
      "inputs": [
        {
          "internalType": "address",
          "name": "",
          "type": "address"
        }
      ],
      "name": "unlockTimestamp",
      "outputs": [
        {
          "internalType": "uint256",
          "name": "",
          "type": "uint256"
        }
      ],
      "stateMutability": "view",
      "type": "function"
    },
    {
      "inputs": [],
      "name": "withdraw",
      "outputs": [],
      "stateMutability": "nonpayable",
      "type": "function"
    }
  ],
  "bytecode": "0x60a06040523480156200001157600080fd5b5060405162002ab038038062002ab08339818101604052810190620000379190620003ab565b600180819055508373ffffffffffffffffffffffffffffffffffffffff1660808173ffffffffffffffffffffffffffffffffffffffff1681525050620000876000801b846200014860201b60201c565b620000b97f12b42e8a160f6064dc959c6f251e3af0750ad213dbecf573b4710d67d6c28e39846200014860201b60201c565b600073ffffffffffffffffffffffffffffffffffffffff168273ffffffffffffffffffffffffffffffffffffffff1614620000f55781620000f7565b825b600260006101000a81548173ffffffffffffffffffffffffffffffffffffffff021916908373ffffffffffffffffffffffffffffffffffffffff16021790555080600481905550505050506200041d565b6200015a82826200015e60201b60201c565b5050565b6200017082826200024f60201b60201c565b6200024b57600160008084815260200190815260200160002060000160008373ffffffffffffffffffffffffffffffffffffffff1673ffffffffffffffffffffffffffffffffffffffff16815260200190815260200160002060006101000a81548160ff021916908315150217905550620001f0620002b960201b60201c565b73ffffffffffffffffffffffffffffffffffffffff168173ffffffffffffffffffffffffffffffffffffffff16837f2f8788117e7eff1d82e926ec794901d17c78024a50270940304540a733656f0d60405160405180910390a45b5050565b600080600084815260200190815260200160002060000160008373ffffffffffffffffffffffffffffffffffffffff1673ffffffffffffffffffffffffffffffffffffffff16815260200190815260200160002060009054906101000a900460ff16905092915050565b600033905090565b600080fd5b600073ffffffffffffffffffffffffffffffffffffffff82169050919050565b6000620002f382620002c6565b9050919050565b60006200030782620002e6565b9050919050565b6200031981620002fa565b81146200032557600080fd5b50565b60008151905062000339816200030e565b92915050565b6200034a81620002e6565b81146200035657600080fd5b50565b6000815190506200036a816200033f565b92915050565b6000819050919050565b620003858162000370565b81146200039157600080fd5b50565b600081519050620003a5816200037a565b92915050565b60008060008060808587031215620003c857620003c7620002c1565b5b6000620003d88782880162000328565b9450506020620003eb8782880162000359565b9350506040620003fe8782880162000359565b9250506060620004118782880162000394565b91505092959194509250565b6080516126626200044e6000396000818161061a01528181610c2201528181610e3a015261101d01526126626000f3fe608060405234801561001057600080fd5b50600436106101425760003560e01c806361d027b3116100b8578063a694fc3a1161007c578063a694fc3a14610375578063b8221bc414610391578063d547741f146103af578063f0f44260146103cb578063f308cfca146103e7578063fc0c546a1461041757610142565b806361d027b3146102bb578063817b1cd2146102d957806391d14854146102f757806398807d8414610327578063a217fddf1461035757610142565b80632f2ff15d1161010a5780632f2ff15d1461020f57806336568abe1461022b578063399080ec146102475780633ccfd60b146102775780634fc3f41a146102815780635095af641461029d57610142565b806301ffc9a71461014757806302fb4d85146101775780632309572114610193578063248a9ca3146101af57806328f0e093146101df575b600080fd5b610161600480360381019061015c91906119cd565b610435565b60405161016e9190611a15565b60405180910390f35b610191600480360381019061018c9190611ac4565b6104af565b005b6101ad60048036038101906101a89190611b04565b6106df565b005b6101c960048036038101906101c49190611b67565b61095c565b6040516101d69190611ba3565b60405180910390f35b6101f960048036038101906101f49190611bbe565b61097b565b6040516102069190611bfa565b60405180910390f35b61022960048036038101906102249190611c15565b610993565b005b61024560048036038101906102409190611c15565b6109b4565b005b610261600480360381019061025c9190611bbe565b610a37565b60405161026e9190611bfa565b60405180910390f35b61027f610a80565b005b61029b60048036038101906102969190611b04565b610cbf565b005b6102a5610d0e565b6040516102b29190611ba3565b60405180910390f35b6102c3610d32565b6040516102d09190611c64565b60405180910390f35b6102e1610d58565b6040516102ee9190611bfa565b60405180910390f35b610311600480360381019061030c9190611c15565b610d5e565b60405161031e9190611a15565b60405180910390f35b610341600480360381019061033c9190611bbe565b610dc8565b60405161034e9190611bfa565b60405180910390f35b61035f610de0565b60405161036c9190611ba3565b60405180910390f35b61038f600480360381019061038a9190611b04565b610de7565b005b610399610f47565b6040516103a69190611bfa565b60405180910390f35b6103c960048036038101906103c49190611c15565b610f4d565b005b6103e560048036038101906103e09190611bbe565b610f6e565b005b61040160048036038101906103fc9190611bbe565b611003565b60405161040e9190611bfa565b60405180910390f35b61041f61101b565b60405161042c9190611cde565b60405180910390f35b60007f7965db0b000000000000000000000000000000000000000000000000000000007bffffffffffffffffffffffffffffffffffffffffffffffffffffffff1916827bffffffffffffffffffffffffffffffffffffffffffffffffffffffff191614806104a857506104a78261103f565b5b9050919050565b6104b76110a9565b7f12b42e8a160f6064dc959c6f251e3af0750ad213dbecf573b4710d67d6c28e396104e1816110f8565b60008211610524576040517f08c379a000000000000000000000000000000000000000000000000000000000815260040161051b90611d56565b60405180910390fd5b6000600560008573ffffffffffffffffffffffffffffffffffffffff1673ffffffffffffffffffffffffffffffffffffffff16815260200190815260200160002054905080831115610574578092505b6000830361058257506106d2565b82600560008673ffffffffffffffffffffffffffffffffffffffff1673ffffffffffffffffffffffffffffffffffffffff16815260200190815260200160002060008282546105d19190611da5565b9250508190555082600360008282546105ea9190611da5565b9250508190555061065e600260009054906101000a900473ffffffffffffffffffffffffffffffffffffffff16847f000000000000000000000000000000000000000000000000000000000000000073ffffffffffffffffffffffffffffffffffffffff1661110c9092919063ffffffff16565b8373ffffffffffffffffffffffffffffffffffffffff167fd87c3348a79019696e9b472cb0efe979015741dd3a1c95f43cc26dd1ace903c084600260009054906101000a900473ffffffffffffffffffffffffffffffffffffffff166040516106c8929190611dd9565b60405180910390a2505b506106db611192565b5050565b6106e76110a9565b6000811161072a576040517f08c379a000000000000000000000000000000000000000000000000000000000815260040161072190611d56565b60405180910390fd5b80600560003373ffffffffffffffffffffffffffffffffffffffff1673ffffffffffffffffffffffffffffffffffffffff1681526020019081526020016000205410156107ac576040517f08c379a00000000000000000000000000000000000000000000000000000000081526004016107a390611e4e565b60405180910390fd5b80600560003373ffffffffffffffffffffffffffffffffffffffff1673ffffffffffffffffffffffffffffffffffffffff16815260200190815260200160002060008282546107fb9190611da5565b9250508190555080600660003373ffffffffffffffffffffffffffffffffffffffff1673ffffffffffffffffffffffffffffffffffffffff16815260200190815260200160002060008282546108519190611e6e565b92505081905550600454426108669190611e6e565b600760003373ffffffffffffffffffffffffffffffffffffffff1673ffffffffffffffffffffffffffffffffffffffff1681526020019081526020016000208190555080600360008282546108bb9190611da5565b925050819055503373ffffffffffffffffffffffffffffffffffffffff167f57e41df54512c76148b5ba9b643d149752b0d35e493b969bd017d0a3fe5228cf82600760003373ffffffffffffffffffffffffffffffffffffffff1673ffffffffffffffffffffffffffffffffffffffff16815260200190815260200160002054604051610949929190611ea2565b60405180910390a2610959611192565b50565b6000806000838152602001908152602001600020600101549050919050565b60076020528060005260406000206000915090505481565b61099c8261095c565b6109a5816110f8565b6109af838361119b565b505050565b6109bc61127b565b73ffffffffffffffffffffffffffffffffffffffff168173ffffffffffffffffffffffffffffffffffffffff1614610a29576040517f08c379a0000000000000000000000000000000000000000000000000000000008152600401610a2090611f3d565b60405180910390fd5b610a338282611283565b5050565b6000600560008373ffffffffffffffffffffffffffffffffffffffff1673ffffffffffffffffffffffffffffffffffffffff168152602001908152602001600020549050919050565b610a886110a9565b6000600660003373ffffffffffffffffffffffffffffffffffffffff1673ffffffffffffffffffffffffffffffffffffffff16815260200190815260200160002054905060008111610b0f576040517f08c379a0000000000000000000000000000000000000000000000000000000008152600401610b0690611fa9565b60405180910390fd5b600760003373ffffffffffffffffffffffffffffffffffffffff1673ffffffffffffffffffffffffffffffffffffffff16815260200190815260200160002054421015610b91576040517f08c379a0000000000000000000000000000000000000000000000000000000008152600401610b8890612015565b60405180910390fd5b6000600660003373ffffffffffffffffffffffffffffffffffffffff1673ffffffffffffffffffffffffffffffffffffffff168152602001908152602001600020819055506000600760003373ffffffffffffffffffffffffffffffffffffffff1673ffffffffffffffffffffffffffffffffffffffff16815260200190815260200160002081905550610c6633827f000000000000000000000000000000000000000000000000000000000000000073ffffffffffffffffffffffffffffffffffffffff1661110c9092919063ffffffff16565b3373ffffffffffffffffffffffffffffffffffffffff167f7084f5476618d8e60b11ef0d7d3f06914655adb8793e28ff7f018d4c76d505d582604051610cac9190611bfa565b60405180910390a250610cbd611192565b565b6000801b610ccc816110f8565b816004819055507ff4f81c8df394c367119ef9185e49924fbc14f33668d8c0fe5a767cc822858ae282604051610d029190611bfa565b60405180910390a15050565b7f12b42e8a160f6064dc959c6f251e3af0750ad213dbecf573b4710d67d6c28e3981565b600260009054906101000a900473ffffffffffffffffffffffffffffffffffffffff1681565b60035481565b600080600084815260200190815260200160002060000160008373ffffffffffffffffffffffffffffffffffffffff1673ffffffffffffffffffffffffffffffffffffffff16815260200190815260200160002060009054906101000a900460ff16905092915050565b60056020528060005260406000206000915090505481565b6000801b81565b610def6110a9565b60008111610e32576040517f08c379a0000000000000000000000000000000000000000000000000000000008152600401610e2990611d56565b60405180910390fd5b610e7f3330837f000000000000000000000000000000000000000000000000000000000000000073ffffffffffffffffffffffffffffffffffffffff16611364909392919063ffffffff16565b80600560003373ffffffffffffffffffffffffffffffffffffffff1673ffffffffffffffffffffffffffffffffffffffff1681526020019081526020016000206000828254610ece9190611e6e565b925050819055508060036000828254610ee79190611e6e565b925050819055503373ffffffffffffffffffffffffffffffffffffffff167f9e71bc8eea02a63969f509818f2dafb9254532904319f9dbda79b67bd34a5f3d82604051610f349190611bfa565b60405180910390a2610f44611192565b50565b60045481565b610f568261095c565b610f5f816110f8565b610f698383611283565b505050565b6000801b610f7b816110f8565b81600260006101000a81548173ffffffffffffffffffffffffffffffffffffffff021916908373ffffffffffffffffffffffffffffffffffffffff1602179055508173ffffffffffffffffffffffffffffffffffffffff167f3c864541ef71378c6229510ed90f376565ee42d9c5e0904a984a9e863e6db44f60405160405180910390a25050565b60066020528060005260406000206000915090505481565b7f000000000000000000000000000000000000000000000000000000000000000081565b60007f01ffc9a7000000000000000000000000000000000000000000000000000000007bffffffffffffffffffffffffffffffffffffffffffffffffffffffff1916827bffffffffffffffffffffffffffffffffffffffffffffffffffffffff1916149050919050565b6002600154036110ee576040517f08c379a00000000000000000000000000000000000000000000000000000000081526004016110e590612081565b60405180910390fd5b6002600181905550565b6111098161110461127b565b6113ed565b50565b61118d8363a9059cbb60e01b848460405160240161112b9291906120a1565b604051602081830303815290604052907bffffffffffffffffffffffffffffffffffffffffffffffffffffffff19166020820180517bffffffffffffffffffffffffffffffffffffffffffffffffffffffff8381831617835250505050611472565b505050565b60018081905550565b6111a58282610d5e565b61127757600160008084815260200190815260200160002060000160008373ffffffffffffffffffffffffffffffffffffffff1673ffffffffffffffffffffffffffffffffffffffff16815260200190815260200160002060006101000a81548160ff02191690831515021790555061121c61127b565b73ffffffffffffffffffffffffffffffffffffffff168173ffffffffffffffffffffffffffffffffffffffff16837f2f8788117e7eff1d82e926ec794901d17c78024a50270940304540a733656f0d60405160405180910390a45b5050565b600033905090565b61128d8282610d5e565b1561136057600080600084815260200190815260200160002060000160008373ffffffffffffffffffffffffffffffffffffffff1673ffffffffffffffffffffffffffffffffffffffff16815260200190815260200160002060006101000a81548160ff02191690831515021790555061130561127b565b73ffffffffffffffffffffffffffffffffffffffff168173ffffffffffffffffffffffffffffffffffffffff16837ff6391f5c32d9c69d2a47ea670b442974b53935d1edc7fd64eb21e047a839171b60405160405180910390a45b5050565b6113e7846323b872dd60e01b858585604051602401611385939291906120ca565b604051602081830303815290604052907bffffffffffffffffffffffffffffffffffffffffffffffffffffffff19166020820180517bffffffffffffffffffffffffffffffffffffffffffffffffffffffff8381831617835250505050611472565b50505050565b6113f78282610d5e565b61146e576114048161153a565b6114128360001c6020611567565b60405160200161142392919061220a565b6040516020818303038152906040526040517f08c379a0000000000000000000000000000000000000000000000000000000008152600401611465919061228e565b60405180910390fd5b5050565b60006114d4826040518060400160405280602081526020017f5361666545524332303a206c6f772d6c6576656c2063616c6c206661696c65648152508573ffffffffffffffffffffffffffffffffffffffff166117a39092919063ffffffff16565b90506000815114806114f65750808060200190518101906114f591906122dc565b5b611535576040517f08c379a000000000000000000000000000000000000000000000000000000000815260040161152c9061237b565b60405180910390fd5b505050565b60606115608273ffffffffffffffffffffffffffffffffffffffff16601460ff16611567565b9050919050565b60606000600283600261157a919061239b565b6115849190611e6e565b67ffffffffffffffff81111561159d5761159c6123dd565b5b6040519080825280601f01601f1916602001820160405280156115cf5781602001600182028036833780820191505090505b5090507f3000000000000000000000000000000000000000000000000000000000000000816000815181106116075761160661240c565b5b60200101907effffffffffffffffffffffffffffffffffffffffffffffffffffffffffffff1916908160001a9053507f78000000000000000000000000000000000000000000000000000000000000008160018151811061166b5761166a61240c565b5b60200101907effffffffffffffffffffffffffffffffffffffffffffffffffffffffffffff1916908160001a905350600060018460026116ab919061239b565b6116b59190611e6e565b90505b6001811115611755577f3031323334353637383961626364656600000000000000000000000000000000600f8616601081106116f7576116f661240c565b5b1a60f81b82828151811061170e5761170d61240c565b5b60200101907effffffffffffffffffffffffffffffffffffffffffffffffffffffffffffff1916908160001a905350600485901c94508061174e9061243b565b90506116b8565b5060008414611799576040517f08c379a0000000000000000000000000000000000000000000000000000000008152600401611790906124b0565b60405180910390fd5b8091505092915050565b60606117b284846000856117bb565b90509392505050565b606082471015611800576040517f08c379a00000000000000000000000000000000000000000000000000000000081526004016117f790612542565b60405180910390fd5b6000808673ffffffffffffffffffffffffffffffffffffffff16858760405161182991906125a9565b60006040518083038185875af1925050503d8060008114611866576040519150601f19603f3d011682016040523d82523d6000602084013e61186b565b606091505b509150915061187c87838387611888565b92505050949350505050565b606083156118ea5760008351036118e2576118a2856118fd565b6118e1576040517f08c379a00000000000000000000000000000000000000000000000000000000081526004016118d89061260c565b60405180910390fd5b5b8290506118f5565b6118f48383611920565b5b949350505050565b6000808273ffffffffffffffffffffffffffffffffffffffff163b119050919050565b6000825111156119335781518083602001fd5b806040517f08c379a0000000000000000000000000000000000000000000000000000000008152600401611967919061228e565b60405180910390fd5b600080fd5b60007fffffffff0000000000000000000000000000000000000000000000000000000082169050919050565b6119aa81611975565b81146119b557600080fd5b50565b6000813590506119c7816119a1565b92915050565b6000602082840312156119e3576119e2611970565b5b60006119f1848285016119b8565b91505092915050565b60008115159050919050565b611a0f816119fa565b82525050565b6000602082019050611a2a6000830184611a06565b92915050565b600073ffffffffffffffffffffffffffffffffffffffff82169050919050565b6000611a5b82611a30565b9050919050565b611a6b81611a50565b8114611a7657600080fd5b50565b600081359050611a8881611a62565b92915050565b6000819050919050565b611aa181611a8e565b8114611aac57600080fd5b50565b600081359050611abe81611a98565b92915050565b60008060408385031215611adb57611ada611970565b5b6000611ae985828601611a79565b9250506020611afa85828601611aaf565b9150509250929050565b600060208284031215611b1a57611b19611970565b5b6000611b2884828501611aaf565b91505092915050565b6000819050919050565b611b4481611b31565b8114611b4f57600080fd5b50565b600081359050611b6181611b3b565b92915050565b600060208284031215611b7d57611b7c611970565b5b6000611b8b84828501611b52565b91505092915050565b611b9d81611b31565b82525050565b6000602082019050611bb86000830184611b94565b92915050565b600060208284031215611bd457611bd3611970565b5b6000611be284828501611a79565b91505092915050565b611bf481611a8e565b82525050565b6000602082019050611c0f6000830184611beb565b92915050565b60008060408385031215611c2c57611c2b611970565b5b6000611c3a85828601611b52565b9250506020611c4b85828601611a79565b9150509250929050565b611c5e81611a50565b82525050565b6000602082019050611c796000830184611c55565b92915050565b6000819050919050565b6000611ca4611c9f611c9a84611a30565b611c7f565b611a30565b9050919050565b6000611cb682611c89565b9050919050565b6000611cc882611cab565b9050919050565b611cd881611cbd565b82525050565b6000602082019050611cf36000830184611ccf565b92915050565b600082825260208201905092915050565b7f7a65726f20616d6f756e74000000000000000000000000000000000000000000600082015250565b6000611d40600b83611cf9565b9150611d4b82611d0a565b602082019050919050565b60006020820190508181036000830152611d6f81611d33565b9050919050565b7f4e487b7100000000000000000000000000000000000000000000000000000000600052601160045260246000fd5b6000611db082611a8e565b9150611dbb83611a8e565b9250828203905081811115611dd357611dd2611d76565b5b92915050565b6000604082019050611dee6000830185611beb565b611dfb6020830184611c55565b9392505050565b7f6e6f7420656e6f756768207374616b6564000000000000000000000000000000600082015250565b6000611e38601183611cf9565b9150611e4382611e02565b602082019050919050565b60006020820190508181036000830152611e6781611e2b565b9050919050565b6000611e7982611a8e565b9150611e8483611a8e565b9250828201905080821115611e9c57611e9b611d76565b5b92915050565b6000604082019050611eb76000830185611beb565b611ec46020830184611beb565b9392505050565b7f416363657373436f6e74726f6c3a2063616e206f6e6c792072656e6f756e636560008201527f20726f6c657320666f722073656c660000000000000000000000000000000000602082015250565b6000611f27602f83611cf9565b9150611f3282611ecb565b604082019050919050565b60006020820190508181036000830152611f5681611f1a565b9050919050565b7f6e6f7468696e672070656e64696e670000000000000000000000000000000000600082015250565b6000611f93600f83611cf9565b9150611f9e82611f5d565b602082019050919050565b60006020820190508181036000830152611fc281611f86565b9050919050565b7f636f6f6c646f776e206e6f742066696e69736865640000000000000000000000600082015250565b6000611fff601583611cf9565b915061200a82611fc9565b602082019050919050565b6000602082019050818103600083015261202e81611ff2565b9050919050565b7f5265656e7472616e637947756172643a207265656e7472616e742063616c6c00600082015250565b600061206b601f83611cf9565b915061207682612035565b602082019050919050565b6000602082019050818103600083015261209a8161205e565b9050919050565b60006040820190506120b66000830185611c55565b6120c36020830184611beb565b9392505050565b60006060820190506120df6000830186611c55565b6120ec6020830185611c55565b6120f96040830184611beb565b949350505050565b600081905092915050565b7f416363657373436f6e74726f6c3a206163636f756e7420000000000000000000600082015250565b6000612142601783612101565b915061214d8261210c565b601782019050919050565b600081519050919050565b60005b83811015612181578082015181840152602081019050612166565b60008484015250505050565b600061219882612158565b6121a28185612101565b93506121b2818560208601612163565b80840191505092915050565b7f206973206d697373696e6720726f6c6520000000000000000000000000000000600082015250565b60006121f4601183612101565b91506121ff826121be565b601182019050919050565b600061221582612135565b9150612221828561218d565b915061222c826121e7565b9150612238828461218d565b91508190509392505050565b6000601f19601f8301169050919050565b600061226082612158565b61226a8185611cf9565b935061227a818560208601612163565b61228381612244565b840191505092915050565b600060208201905081810360008301526122a88184612255565b905092915050565b6122b9816119fa565b81146122c457600080fd5b50565b6000815190506122d6816122b0565b92915050565b6000602082840312156122f2576122f1611970565b5b6000612300848285016122c7565b91505092915050565b7f5361666545524332303a204552433230206f7065726174696f6e20646964206e60008201527f6f74207375636365656400000000000000000000000000000000000000000000602082015250565b6000612365602a83611cf9565b915061237082612309565b604082019050919050565b6000602082019050818103600083015261239481612358565b9050919050565b60006123a682611a8e565b91506123b183611a8e565b92508282026123bf81611a8e565b915082820484148315176123d6576123d5611d76565b5b5092915050565b7f4e487b7100000000000000000000000000000000000000000000000000000000600052604160045260246000fd5b7f4e487b7100000000000000000000000000000000000000000000000000000000600052603260045260246000fd5b600061244682611a8e565b91506000820361245957612458611d76565b5b600182039050919050565b7f537472696e67733a20686578206c656e67746820696e73756666696369656e74600082015250565b600061249a602083611cf9565b91506124a582612464565b602082019050919050565b600060208201905081810360008301526124c98161248d565b9050919050565b7f416464726573733a20696e73756666696369656e742062616c616e636520666f60008201527f722063616c6c0000000000000000000000000000000000000000000000000000602082015250565b600061252c602683611cf9565b9150612537826124d0565b604082019050919050565b6000602082019050818103600083015261255b8161251f565b9050919050565b600081519050919050565b600081905092915050565b600061258382612562565b61258d818561256d565b935061259d818560208601612163565b80840191505092915050565b60006125b58284612578565b915081905092915050565b7f416464726573733a2063616c6c20746f206e6f6e2d636f6e7472616374000000600082015250565b60006125f6601d83611cf9565b9150612601826125c0565b602082019050919050565b60006020820190508181036000830152612625816125e9565b905091905056fea2646970667358221220fd4458a2b1d789367532352e1fd5e9f42982ee6bfa7779ea6a2f09b3b7b2317364736f6c63430008130033",
  "linkReferences": {},
  "deployedLinkReferences": {}
}